{"abi":[{"type":"constructor","inputs":[{"name":"asset_","type":"address","internalType":"contract IERC20"},{"name":"strategy_","type":"address","internalType":"contract IStrategy"}],"stateMutability":"nonpayable"},{"type":"function","name":"allowance","inputs":[{"name":"owner","type":"address","internalType":"address"},{"name":"spender","type":"address","internalType":"address"}],"outputs":[{"name":"","type":"uint256","internalType":"uint256"}],"stateMutability":"view"},{"type":"function","name":"approve","inputs":[{"name":"spender","type":"address","internalType":"address"},{"name":"amount","type":"uint256","internalType":"uint256"}],"outputs":[{"name":"","type":"bool","internalType":"bool"}],"stateMutability":"nonpayable"},{"type":"function","name":"asset","inputs":[],"outputs":[{"name":"","type":"address","internalType":"address"}],"stateMutability":"view"},{"type":"function","name":"balanceOf","inputs":[{"name":"account","type":"address","internalType":"address"}],"outputs":[{"name":"","type":"uint256","internalType":"uint256"}],"stateMutability":"view"},{"type":"function","name":"convertToAssets","inputs":[{"name":"shares","type":"uint256","internalType":"uint256"}],"outputs":[{"name":"","type":"uint256","internalType":"uint256"}],"stateMutability":"view"},{"type":"function","name":"convertToShares","inputs":[{"name":"assets","type":"uint256","internalType":"uint256"}],"outputs":[{"name":"","type":"uint256","internalType":"uint256"}],"stateMutability":"view"},{"type":"function","name":"decimals","inputs":[],"outputs":[{"name":"","type":"uint8","internalType":"uint8"}],"stateMutability":"view"},{"type":"function","name":"decreaseAllowance","inputs":[{"name":"spender","type":"address","internalType":"address"},{"name":"subtractedValue","type":"uint256","internalType":"uint256"}],"outputs":[{"name":"","type":"bool","internalType":"bool"}],"stateMutability":"nonpayable"},{"type":"function","name":"deposit","inputs":[{"name":"assets","type":"uint256","internalType":"uint256"},{"name":"receiver","type":"address","internalType":"address"}],"outputs":[{"name":"shares","type":"uint256","internalType":"uint256"}],"stateMutability":"nonpayable"},{"type":"function","name":"increaseAllowance","inputs":[{"name":"spender","type":"address","internalType":"address"},{"name":"addedValue","type":"uint256","internalType":"uint256"}],"outputs":[{"name":"","type":"bool","internalType":"bool"}],"stateMutability":"nonpayable"},{"type":"function","name":"maxDeposit","inputs":[{"name":"","type":"address","internalType":"address"}],"outputs":[{"name":"","type":"uint256","internalType":"uint256"}],"stateMutability":"view"},{"type":"function","name":"maxMint","inputs":[{"name":"","type":"address","internalType":"address"}],"outputs":[{"name":"","type":"uint256","internalType":"uint256"}],"stateMutability":"view"},{"type":"function","name":"maxRedeem","inputs":[{"name":"owner","type":"address","internalType":"address"}],"outputs":[{"name":"","type":"uint256","internalType":"uint256"}],"stateMutability":"view"},{"type":"function","name":"maxWithdraw","inputs":[{"name":"owner","type":"address","internalType":"address"}],"outputs":[{"name":"","type":"uint256","internalType":"uint256"}],"stateMutability":"view"},{"type":"function","name":"mint","inputs":[{"name":"shares","type":"uint256","internalType":"uint256"},{"name":"receiver","type":"address","internalType":"address"}],"outputs":[{"name":"","type":"uint256","internalType":"uint256"}],"stateMutability":"nonpayable"},{"type":"function","name":"name","inputs":[],"outputs":[{"name":"","type":"string","internalType":"string"}],"stateMutability":"view"},{"type":"function","name":"previewDeposit","inputs":[{"name":"assets","type":"uint256","internalType":"uint256"}],"outputs":[{"name":"","type":"uint256","internalType":"uint256"}],"stateMutability":"view"},{"type":"function","name":"previewMint","inputs":[{"name":"shares","type":"uint256","internalType":"uint256"}],"outputs":[{"name":"","type":"uint256","internalType":"uint256"}],"stateMutability":"view"},{"type":"function","name":"previewRedeem","inputs":[{"name":"shares","type":"uint256","internalType":"uint256"}],"outputs":[{"name":"","type":"uint256","internalType":"uint256"}],"stateMutability":"view"},{"type":"function","name":"previewWithdraw","inputs":[{"name":"assets","type":"uint256","internalType":"uint256"}],"outputs":[{"name":"","type":"uint256","internalType":"uint256"}],"stateMutability":"view"},{"type":"function","name":"redeem","inputs":[{"name":"shares","type":"uint256","internalType":"uint256"},{"name":"receiver","type":"address","internalType":"address"},{"name":"owner","type":"address","internalType":"address"}],"outputs":[{"name":"","type":"uint256","internalType":"uint256"}],"stateMutability":"nonpayable"},{"type":"function","name":"strategy","inputs":[],"outputs":[{"name":"","type":"address","internalType":"contract IStrategy"}],"stateMutability":"view"},{"type":"function","name":"symbol","inputs":[],"outputs":[{"name":"","type":"string","internalType":"string"}],"stateMutability":"view"},{"type":"function","name":"totalAssets","inputs":[],"outputs":[{"name":"","type":"uint256","internalType":"uint256"}],"stateMutability":"view"},{"type":"function","name":"totalSupply","inputs":[],"outputs":[{"name":"","type":"uint256","internalType":"uint256"}],"stateMutability":"view"},{"type":"function","name":"transfer","inputs":[{"name":"to","type":"address","internalType":"address"},{"name":"amount","type":"uint256","internalType":"uint256"}],"outputs":[{"name":"","type":"bool","internalType":"bool"}],"stateMutability":"nonpayable"},{"type":"function","name":"transferFrom","inputs":[{"name":"from","type":"address","internalType":"address"},{"name":"to","type":"address","internalType":"address"},{"name":"amount","type":"uint256","internalType":"uint256"}],"outputs":[{"name":"","type":"bool","internalType":"bool"}],"stateMutability":"nonpayable"},{"type":"function","name":"withdraw","inputs":[{"name":"assets","type":"uint256","internalType":"uint256"},{"name":"receiver","type":"address","internalType":"address"},{"name":"owner","type":"address","internalType":"address"}],"outputs":[{"name":"shares","type":"uint256","internalType":"uint256"}],"stateMutability":"nonpayable"},{"type":"event","name":"Approval","inputs":[{"name":"owner","type":"address","indexed":true,"internalType":"address"},{"name":"spender","type":"address","indexed":true,"internalType":"address"},{"name":"value","type":"uint256","indexed":false,"internalType":"uint256"}],"anonymous":false},{"type":"event","name":"Deposit","inputs":[{"name":"sender","type":"address","indexed":true,"internalType":"address"},{"name":"owner","type":"address","indexed":true,"internalType":"address"},{"name":"assets","type":"uint256","indexed":false,"internalType":"uint256"},{"name":"shares","type":"uint256","indexed":false,"internalType":"uint256"}],"anonymous":false},{"type":"event","name":"Transfer","inputs":[{"name":"from","type":"address","indexed":true,"internalType":"address"},{"name":"to","type":"address","indexed":true,"internalType":"address"},{"name":"value","type":"uint256","indexed":false,"internalType":"uint256"}],"anonymous":false},{"type":"event","name":"Withdraw","inputs":[{"name":"sender","type":"address","indexed":true,"internalType":"address"},{"name":"receiver","type":"address","indexed":true,"internalType":"address"},{"name":"owner","type":"address","indexed":true,"internalType":"address"},{"name":"assets","type":"uint256","indexed":false,"internalType":"uint256"},{"name":"shares","type":"uint256","indexed":false,"internalType":"uint256"}],"anonymous":false}],"bytecode":{"object":"0x60c060405234801562000010575f80fd5b506040516200234f3803806200234f8339810160408190526200003391620001f8565b81604051806040016040528060128152602001710a6cadce8d2dccad840acc2ead8e8408aa8960731b815250604051806040016040528060058152602001640e6ec8aa8960db1b81525081600390816200008e9190620002d5565b5060046200009d8282620002d5565b5050505f80620000b3836200010160201b60201c565b9150915081620000c5576012620000c7565b805b60ff1660a05250506001600160a01b039081166080526001600555600680546001600160a01b0319169290911691909117905550620003e3565b60408051600481526024810182526020810180516001600160e01b031663313ce56760e01b17905290515f918291829182916001600160a01b0387169162000149916200039d565b5f60405180830381855afa9150503d805f811462000183576040519150601f19603f3d011682016040523d82523d5f602084013e62000188565b606091505b50915091508180156200019d57506020815110155b15620001d4575f81806020019051810190620001ba9190620003cb565b905060ff8111620001d2576001969095509350505050565b505b505f9485945092505050565b6001600160a01b0381168114620001f5575f80fd5b50565b5f80604083850312156200020a575f80fd5b82516200021781620001e0565b60208401519092506200022a81620001e0565b809150509250929050565b634e487b7160e01b5f52604160045260245ffd5b600181811c908216806200025e57607f821691505b6020821081036200027d57634e487b7160e01b5f52602260045260245ffd5b50919050565b601f821115620002d0575f81815260208120601f850160051c81016020861015620002ab5750805b601f850160051c820191505b81811015620002cc57828155600101620002b7565b5050505b505050565b81516001600160401b03811115620002f157620002f162000235565b620003098162000302845462000249565b8462000283565b602080601f8311600181146200033f575f8415620003275750858301515b5f19600386901b1c1916600185901b178555620002cc565b5f85815260208120601f198616915b828110156200036f578886015182559484019460019091019084016200034e565b50858210156200038d57878501515f19600388901b60f8161c191681555b5050505050600190811b01905550565b5f82515f5b81811015620003be5760208186018101518583015201620003a2565b505f920191825250919050565b5f60208284031215620003dc575f80fd5b5051919050565b60805160a051611f27620004285f395f6105e001525f818161026f01528181610685015281816106e2015281816108ab015281816111fa015261135c0152611f275ff3fe608060405234801561000f575f80fd5b50600436106101bb575f3560e01c806394bf804d116100f3578063ba08765211610093578063ce96cb771161006e578063ce96cb77146103ef578063d905777e14610402578063dd62ed3e14610415578063ef8b30f7146103dc575f80fd5b8063ba087652146103c9578063c63d75b6146102c7578063c6e6f592146103dc575f80fd5b8063a8c62e76116100ce578063a8c62e7614610370578063a9059cbb14610390578063b3d7f6b9146103a3578063b460af94146103b6575f80fd5b806394bf804d1461034257806395d89b4114610355578063a457c2d71461035d575f80fd5b8063313ce5671161015e578063402d267d11610139578063402d267d146102c75780634cdad506146101ef5780636e553f65146102fa57806370a082311461030d575f80fd5b8063313ce5671461025357806338d52e0f1461026d57806339509351146102b4575f80fd5b8063095ea7b311610199578063095ea7b3146102025780630a28a4771461022557806318160ddd1461023857806323b872dd14610240575f80fd5b806301e1d114146101bf57806306fdde03146101da57806307a2d13a146101ef575b5f80fd5b6101c761045a565b6040519081526020015b60405180910390f35b6101e26104f0565b6040516101d19190611adc565b6101c76101fd366004611b2c565b610580565b610215610210366004611b6b565b610591565b60405190151581526020016101d1565b6101c7610233366004611b2c565b6105a8565b6002546101c7565b61021561024e366004611b93565b6105b4565b61025b6105d9565b60405160ff90911681526020016101d1565b7f00000000000000000000000000000000000000000000000000000000000000005b60405173ffffffffffffffffffffffffffffffffffffffff90911681526020016101d1565b6102156102c2366004611b6b565b610604565b6101c76102d5366004611bcc565b507fffffffffffffffffffffffffffffffffffffffffffffffffffffffffffffffff90565b6101c7610308366004611be5565b61064f565b6101c761031b366004611bcc565b73ffffffffffffffffffffffffffffffffffffffff165f9081526020819052604090205490565b6101c7610350366004611be5565b61078f565b6101e26107b6565b61021561036b366004611b6b565b6107c5565b60065461028f9073ffffffffffffffffffffffffffffffffffffffff1681565b61021561039e366004611b6b565b610886565b6101c76103b1366004611b2c565b610893565b6101c76103c4366004611c0f565b61089f565b6101c76103d7366004611c0f565b6109fc565b6101c76103ea366004611b2c565b610a76565b6101c76103fd366004611bcc565b610a81565b6101c7610410366004611bcc565b610ab0565b6101c7610423366004611c48565b73ffffffffffffffffffffffffffffffffffffffff9182165f90815260016020908152604080832093909416825291909152205490565b600654604080517f01e1d11400000000000000000000000000000000000000000000000000000000815290515f9273ffffffffffffffffffffffffffffffffffffffff16916301e1d1149160048083019260209291908290030181865afa1580156104c7573d5f803e3d5ffd5b505050506040513d601f19601f820116820180604052508101906104eb9190611c70565b905090565b6060600380546104ff90611c87565b80601f016020809104026020016040519081016040528092919081815260200182805461052b90611c87565b80156105765780601f1061054d57610100808354040283529160200191610576565b820191905f5260205f20905b81548152906001019060200180831161055957829003601f168201915b5050505050905090565b5f61058b825f610ada565b92915050565b5f3361059e818585610b12565b5060019392505050565b5f61058b826001610c90565b5f336105c1858285610cbf565b6105cc858585610d7b565b60019150505b9392505050565b5f6104eb817f0000000000000000000000000000000000000000000000000000000000000000611d05565b335f81815260016020908152604080832073ffffffffffffffffffffffffffffffffffffffff8716845290915281205490919061059e908290869061064a908790611d1e565b610b12565b5f610658610f9a565b6106628383610ff3565b6006549091506106c29073ffffffffffffffffffffffffffffffffffffffff165f7f00000000000000000000000000000000000000000000000000000000000000005b73ffffffffffffffffffffffffffffffffffffffff16919061100c565b6006546107069073ffffffffffffffffffffffffffffffffffffffff16847f00000000000000000000000000000000000000000000000000000000000000006106a5565b6006546040517fb6b55f250000000000000000000000000000000000000000000000000000000081526004810185905273ffffffffffffffffffffffffffffffffffffffff9091169063b6b55f25906024015f604051808303815f87803b15801561076f575f80fd5b505af1158015610781573d5f803e3d5ffd5b5050505061058b6001600555565b5f61079e565b60405180910390fd5b5f6107a884610893565b90506105d2338483876111f5565b6060600480546104ff90611c87565b335f81815260016020908152604080832073ffffffffffffffffffffffffffffffffffffffff871684529091528120549091908381101561086e5760405162461bcd60e51b815260206004820152602560248201527f45524332303a2064656372656173656420616c6c6f77616e63652062656c6f7760448201527f207a65726f0000000000000000000000000000000000000000000000000000006064820152608401610795565b61087b8286868403610b12565b506001949350505050565b5f3361059e818585610d7b565b5f61058b826001610ada565b5f6108a8610f9a565b5f7f00000000000000000000000000000000000000000000000000000000000000006040517f70a0823100000000000000000000000000000000000000000000000000000000815230600482015273ffffffffffffffffffffffffffffffffffffffff91909116906370a0823190602401602060405180830381865afa158015610934573d5f803e3d5ffd5b505050506040513d601f19601f820116820180604052508101906109589190611c70565b905080851115610966578094505b6109718585856112a1565b6006546040517f2e1a7d4d0000000000000000000000000000000000000000000000000000000081526004810188905291935073ffffffffffffffffffffffffffffffffffffffff1690632e1a7d4d906024015f604051808303815f87803b1580156109db575f80fd5b505af11580156109ed573d5f803e3d5ffd5b50505050506105d26001600555565b5f610a0682610ab0565b841115610a555760405162461bcd60e51b815260206004820152601d60248201527f455243343632363a2072656465656d206d6f7265207468616e206d61780000006044820152606401610795565b5f610a5f85610580565b9050610a6e338585848961130f565b949350505050565b5f61058b825f610c90565b73ffffffffffffffffffffffffffffffffffffffff81165f9081526020819052604081205461058b905f610ada565b73ffffffffffffffffffffffffffffffffffffffff81165f9081526020819052604081205461058b565b5f6105d2610ae661045a565b610af1906001611d1e565b610afc5f600a611e4f565b600254610b099190611d1e565b85919085611410565b73ffffffffffffffffffffffffffffffffffffffff8316610b9a5760405162461bcd60e51b8152602060048201526024808201527f45524332303a20617070726f76652066726f6d20746865207a65726f2061646460448201527f72657373000000000000000000000000000000000000000000000000000000006064820152608401610795565b73ffffffffffffffffffffffffffffffffffffffff8216610c235760405162461bcd60e51b815260206004820152602260248201527f45524332303a20617070726f766520746f20746865207a65726f20616464726560448201527f73730000000000000000000000000000000000000000000000000000000000006064820152608401610795565b73ffffffffffffffffffffffffffffffffffffffff8381165f8181526001602090815260408083209487168084529482529182902085905590518481527f8c5be1e5ebec7d5bd14f71427d1e84f3dd0314c0f7b2291e5b200ac8c7c3b925910160405180910390a3505050565b5f6105d2610c9f82600a611e4f565b600254610cac9190611d1e565b610cb461045a565b610b09906001611d1e565b73ffffffffffffffffffffffffffffffffffffffff8381165f908152600160209081526040808320938616835292905220547fffffffffffffffffffffffffffffffffffffffffffffffffffffffffffffffff8114610d755781811015610d685760405162461bcd60e51b815260206004820152601d60248201527f45524332303a20696e73756666696369656e7420616c6c6f77616e63650000006044820152606401610795565b610d758484848403610b12565b50505050565b73ffffffffffffffffffffffffffffffffffffffff8316610e045760405162461bcd60e51b815260206004820152602560248201527f45524332303a207472616e736665722066726f6d20746865207a65726f20616460448201527f64726573730000000000000000000000000000000000000000000000000000006064820152608401610795565b73ffffffffffffffffffffffffffffffffffffffff8216610e8d5760405162461bcd60e51b815260206004820152602360248201527f45524332303a207472616e7366657220746f20746865207a65726f206164647260448201527f65737300000000000000000000000000000000000000000000000000000000006064820152608401610795565b73ffffffffffffffffffffffffffffffffffffffff83165f9081526020819052604090205481811015610f285760405162461bcd60e51b815260206004820152602660248201527f45524332303a207472616e7366657220616d6f756e742065786365656473206260448201527f616c616e636500000000000000000000000000000000000000000000000000006064820152608401610795565b73ffffffffffffffffffffffffffffffffffffffff8481165f81815260208181526040808320878703905593871680835291849020805487019055925185815290927fddf252ad1be2c89b69c2b068fc378daa952ba7f163c4a11628f55a4df523b3ef910160405180910390a3610d75565b600260055403610fec5760405162461bcd60e51b815260206004820152601f60248201527f5265656e7472616e637947756172643a207265656e7472616e742063616c6c006044820152606401610795565b6002600555565b5f80610ffe84610a76565b90506105d2338486846111f5565b8015806110aa57506040517fdd62ed3e00000000000000000000000000000000000000000000000000000000815230600482015273ffffffffffffffffffffffffffffffffffffffff838116602483015284169063dd62ed3e90604401602060405180830381865afa158015611084573d5f803e3d5ffd5b505050506040513d601f19601f820116820180604052508101906110a89190611c70565b155b61111c5760405162461bcd60e51b815260206004820152603660248201527f5361666545524332303a20617070726f76652066726f6d206e6f6e2d7a65726f60448201527f20746f206e6f6e2d7a65726f20616c6c6f77616e6365000000000000000000006064820152608401610795565b60405173ffffffffffffffffffffffffffffffffffffffff83166024820152604481018290526111f09084907f095ea7b300000000000000000000000000000000000000000000000000000000906064015b604080517fffffffffffffffffffffffffffffffffffffffffffffffffffffffffffffffe08184030181529190526020810180517bffffffffffffffffffffffffffffffffffffffffffffffffffffffff167fffffffff000000000000000000000000000000000000000000000000000000009093169290921790915261146b565b505050565b6112217f000000000000000000000000000000000000000000000000000000000000000085308561155e565b61122b83826115bc565b8273ffffffffffffffffffffffffffffffffffffffff168473ffffffffffffffffffffffffffffffffffffffff167fdcbc1c05240f31ff3ad067ef1ee35ce4997762752e3a095284754544f4c709d78484604051611293929190918252602082015260400190565b60405180910390a350505050565b5f6112ab82610a81565b8411156112fa5760405162461bcd60e51b815260206004820152601f60248201527f455243343632363a207769746864726177206d6f7265207468616e206d6178006044820152606401610795565b5f611304856105a8565b9050610a6e33858588855b8273ffffffffffffffffffffffffffffffffffffffff168573ffffffffffffffffffffffffffffffffffffffff161461134d5761134d838683610cbf565b6113578382611693565b6113827f00000000000000000000000000000000000000000000000000000000000000008584611821565b8273ffffffffffffffffffffffffffffffffffffffff168473ffffffffffffffffffffffffffffffffffffffff168673ffffffffffffffffffffffffffffffffffffffff167ffbde797d201c681b91056529119e0b02407c7bb96a4a2c75c01fc9667232c8db8585604051611401929190918252602082015260400190565b60405180910390a45050505050565b5f8061141d868686611877565b9050600183600281111561143357611433611e5d565b14801561144f57505f848061144a5761144a611e8a565b868809115b156114625761145f600182611d1e565b90505b95945050505050565b5f6114cc826040518060400160405280602081526020017f5361666545524332303a206c6f772d6c6576656c2063616c6c206661696c65648152508573ffffffffffffffffffffffffffffffffffffffff166119839092919063ffffffff16565b905080515f14806114ec5750808060200190518101906114ec9190611eb7565b6111f05760405162461bcd60e51b815260206004820152602a60248201527f5361666545524332303a204552433230206f7065726174696f6e20646964206e60448201527f6f742073756363656564000000000000000000000000000000000000000000006064820152608401610795565b60405173ffffffffffffffffffffffffffffffffffffffff80851660248301528316604482015260648101829052610d759085907f23b872dd000000000000000000000000000000000000000000000000000000009060840161116e565b73ffffffffffffffffffffffffffffffffffffffff821661161f5760405162461bcd60e51b815260206004820152601f60248201527f45524332303a206d696e7420746f20746865207a65726f2061646472657373006044820152606401610795565b8060025f8282546116309190611d1e565b909155505073ffffffffffffffffffffffffffffffffffffffff82165f81815260208181526040808320805486019055518481527fddf252ad1be2c89b69c2b068fc378daa952ba7f163c4a11628f55a4df523b3ef910160405180910390a35050565b73ffffffffffffffffffffffffffffffffffffffff821661171c5760405162461bcd60e51b815260206004820152602160248201527f45524332303a206275726e2066726f6d20746865207a65726f2061646472657360448201527f73000000000000000000000000000000000000000000000000000000000000006064820152608401610795565b73ffffffffffffffffffffffffffffffffffffffff82165f90815260208190526040902054818110156117b75760405162461bcd60e51b815260206004820152602260248201527f45524332303a206275726e20616d6f756e7420657863656564732062616c616e60448201527f63650000000000000000000000000000000000000000000000000000000000006064820152608401610795565b73ffffffffffffffffffffffffffffffffffffffff83165f818152602081815260408083208686039055600280548790039055518581529192917fddf252ad1be2c89b69c2b068fc378daa952ba7f163c4a11628f55a4df523b3ef910160405180910390a3505050565b60405173ffffffffffffffffffffffffffffffffffffffff83166024820152604481018290526111f09084907fa9059cbb000000000000000000000000000000000000000000000000000000009060640161116e565b5f80807fffffffffffffffffffffffffffffffffffffffffffffffffffffffffffffffff858709858702925082811083820303915050805f036118cd578382816118c3576118c3611e8a565b04925050506105d2565b80841161191c5760405162461bcd60e51b815260206004820152601560248201527f4d6174683a206d756c446976206f766572666c6f7700000000000000000000006044820152606401610795565b5f8486880960026001871981018816978890046003810283188082028403028082028403028082028403028082028403028082028403029081029092039091025f889003889004909101858311909403939093029303949094049190911702949350505050565b6060610a6e84845f85855f808673ffffffffffffffffffffffffffffffffffffffff1685876040516119b59190611ed6565b5f6040518083038185875af1925050503d805f81146119ef576040519150601f19603f3d011682016040523d82523d5f602084013e6119f4565b606091505b5091509150611a0587838387611a10565b979650505050505050565b60608315611a8b5782515f03611a845773ffffffffffffffffffffffffffffffffffffffff85163b611a845760405162461bcd60e51b815260206004820152601d60248201527f416464726573733a2063616c6c20746f206e6f6e2d636f6e74726163740000006044820152606401610795565b5081610a6e565b610a6e8383815115611aa05781518083602001fd5b8060405162461bcd60e51b81526004016107959190611adc565b5f5b83811015611ad4578181015183820152602001611abc565b50505f910152565b602081525f8251806020840152611afa816040850160208701611aba565b601f017fffffffffffffffffffffffffffffffffffffffffffffffffffffffffffffffe0169190910160400192915050565b5f60208284031215611b3c575f80fd5b5035919050565b803573ffffffffffffffffffffffffffffffffffffffff81168114611b66575f80fd5b919050565b5f8060408385031215611b7c575f80fd5b611b8583611b43565b946020939093013593505050565b5f805f60608486031215611ba5575f80fd5b611bae84611b43565b9250611bbc60208501611b43565b9150604084013590509250925092565b5f60208284031215611bdc575f80fd5b6105d282611b43565b5f8060408385031215611bf6575f80fd5b82359150611c0660208401611b43565b90509250929050565b5f805f60608486031215611c21575f80fd5b83359250611c3160208501611b43565b9150611c3f60408501611b43565b90509250925092565b5f8060408385031215611c59575f80fd5b611c6283611b43565b9150611c0660208401611b43565b5f60208284031215611c80575f80fd5b5051919050565b600181811c90821680611c9b57607f821691505b602082108103611cd2577f4e487b71000000000000000000000000000000000000000000000000000000005f52602260045260245ffd5b50919050565b7f4e487b71000000000000000000000000000000000000000000000000000000005f52601160045260245ffd5b60ff818116838216019081111561058b5761058b611cd8565b8082018082111561058b5761058b611cd8565b600181815b80851115611d8a57817fffffffffffffffffffffffffffffffffffffffffffffffffffffffffffffffff04821115611d7057611d70611cd8565b80851615611d7d57918102915b93841c9390800290611d36565b509250929050565b5f82611da05750600161058b565b81611dac57505f61058b565b8160018114611dc25760028114611dcc57611de8565b600191505061058b565b60ff841115611ddd57611ddd611cd8565b50506001821b61058b565b5060208310610133831016604e8410600b8410161715611e0b575081810a61058b565b611e158383611d31565b807fffffffffffffffffffffffffffffffffffffffffffffffffffffffffffffffff04821115611e4757611e47611cd8565b029392505050565b5f6105d260ff841683611d92565b7f4e487b71000000000000000000000000000000000000000000000000000000005f52602160045260245ffd5b7f4e487b71000000000000000000000000000000000000000000000000000000005f52601260045260245ffd5b5f60208284031215611ec7575f80fd5b815180151581146105d2575f80fd5b5f8251611ee7818460208701611aba565b919091019291505056fea26469706673582212209760dca71d7cbdf646ddaa3882cd4cd053e2989542b6656af5527893896828a764736f6c63430008140033","linkReferences":{}},"methodIdentifiers":{"allowance(address,address)":"dd62ed3e","approve(address,uint256)":"095ea7b3","asset()":"38d52e0f","balanceOf(address)":"70a08231","convertToAssets(uint256)":"07a2d13a","convertToShares(uint256)":"c6e6f592","decimals()":"313ce567","decreaseAllowance(address,uint256)":"a457c2d7","deposit(uint256,address)":"6e553f65","increaseAllowance(address,uint256)":"39509351","maxDeposit(address)":"402d267d","maxMint(address)":"c63d75b6","maxRedeem(address)":"d905777e","maxWithdraw(address)":"ce96cb77","mint(uint256,address)":"94bf804d","name()":"06fdde03","previewDeposit(uint256)":"ef8b30f7","previewMint(uint256)":"b3d7f6b9","previewRedeem(uint256)":"4cdad506","previewWithdraw(uint256)":"0a28a477","redeem(uint256,address,address)":"ba087652","strategy()":"a8c62e76","symbol()":"95d89b41","totalAssets()":"01e1d114","totalSupply()":"18160ddd","transfer(address,uint256)":"a9059cbb","transferFrom(address,address,uint256)":"23b872dd","withdraw(uint256,address,address)":"b460af94"},"id":0}