{"abi":[{"type":"constructor","inputs":[{"name":"asset_","type":"address","internalType":"contract IERC20"}],"stateMutability":"nonpayable"},{"type":"function","name":"addSimulatedYield","inputs":[{"name":"amount","type":"uint256","internalType":"uint256"}],"outputs":[],"stateMutability":"nonpayable"},{"type":"function","name":"asset","inputs":[],"outputs":[{"name":"","type":"address","internalType":"contract IERC20"}],"stateMutability":"view"},{"type":"function","name":"deposit","inputs":[{"name":"","type":"uint256","internalType":"uint256"}],"outputs":[],"stateMutability":"nonpayable"},{"type":"function","name":"owner","inputs":[],"outputs":[{"name":"","type":"address","internalType":"address"}],"stateMutability":"view"},{"type":"function","name":"renounceOwnership","inputs":[],"outputs":[],"stateMutability":"nonpayable"},{"type":"function","name":"simulatedYield","inputs":[],"outputs":[{"name":"","type":"uint256","internalType":"uint256"}],"stateMutability":"view"},{"type":"function","name":"totalAssets","inputs":[],"outputs":[{"name":"","type":"uint256","internalType":"uint256"}],"stateMutability":"view"},{"type":"function","name":"transferOwnership","inputs":[{"name":"newOwner","type":"address","internalType":"address"}],"outputs":[],"stateMutability":"nonpayable"},{"type":"function","name":"withdraw","inputs":[{"name":"","type":"uint256","internalType":"uint256"}],"outputs":[],"stateMutability":"nonpayable"},{"type":"event","name":"OwnershipTransferred","inputs":[{"name":"previousOwner","type":"address","indexed":true,"internalType":"address"},{"name":"newOwner","type":"address","indexed":true,"internalType":"address"}],"anonymous":false}],"bytecode":{"object":"0x60a060405234801561000f575f80fd5b506040516105d13803806105d183398101604081905261002e91610097565b61003733610048565b6001600160a01b03166080526100c4565b5f80546001600160a01b038381166001600160a01b0319831681178455604051919092169283917f8be0079c531659141344cd1fd0a4f28419497f9722a3daafe3b4186f6b6457e09190a35050565b5f602082840312156100a7575f80fd5b81516001600160a01b03811681146100bd575f80fd5b9392505050565b6080516104ef6100e25f395f818160df01526101ba01526104ef5ff3fe608060405234801561000f575f80fd5b506004361061009f575f3560e01c806351e42def116100725780638da5cb5b116100585780638da5cb5b14610141578063b6b55f25146100c7578063f2fde38b1461015e575f80fd5b806351e42def14610126578063715018a614610139575f80fd5b806301e1d114146100a3578063297c7d81146100be5780632e1a7d4d146100c757806338d52e0f146100da575b5f80fd5b6100ab610171565b6040519081526020015b60405180910390f35b6100ab60015481565b6100d86100d5366004610413565b50565b005b6101017f000000000000000000000000000000000000000000000000000000000000000081565b60405173ffffffffffffffffffffffffffffffffffffffff90911681526020016100b5565b6100d8610134366004610413565b610232565b6100d8610253565b5f5473ffffffffffffffffffffffffffffffffffffffff16610101565b6100d861016c36600461042a565b610266565b6001546040517f70a082310000000000000000000000000000000000000000000000000000000081523060048201525f919073ffffffffffffffffffffffffffffffffffffffff7f000000000000000000000000000000000000000000000000000000000000000016906370a0823190602401602060405180830381865afa1580156101ff573d5f803e3d5ffd5b505050506040513d601f19601f820116820180604052508101906102239190610464565b61022d919061047b565b905090565b61023a61031f565b8060015f82825461024b919061047b565b909155505050565b61025b61031f565b6102645f61039f565b565b61026e61031f565b73ffffffffffffffffffffffffffffffffffffffff8116610316576040517f08c379a000000000000000000000000000000000000000000000000000000000815260206004820152602660248201527f4f776e61626c653a206e6577206f776e657220697320746865207a65726f206160448201527f646472657373000000000000000000000000000000000000000000000000000060648201526084015b60405180910390fd5b6100d58161039f565b5f5473ffffffffffffffffffffffffffffffffffffffff163314610264576040517f08c379a000000000000000000000000000000000000000000000000000000000815260206004820181905260248201527f4f776e61626c653a2063616c6c6572206973206e6f7420746865206f776e6572604482015260640161030d565b5f805473ffffffffffffffffffffffffffffffffffffffff8381167fffffffffffffffffffffffff0000000000000000000000000000000000000000831681178455604051919092169283917f8be0079c531659141344cd1fd0a4f28419497f9722a3daafe3b4186f6b6457e09190a35050565b5f60208284031215610423575f80fd5b5035919050565b5f6020828403121561043a575f80fd5b813573ffffffffffffffffffffffffffffffffffffffff8116811461045d575f80fd5b9392505050565b5f60208284031215610474575f80fd5b5051919050565b808201808211156104b3577f4e487b71000000000000000000000000000000000000000000000000000000005f52601160045260245ffd5b9291505056fea26469706673582212205b93cc973040a14062548002f3255c82f92adb4e4444e1b0f5f23150ea686b5664736f6c63430008140033","linkReferences":{}},"methodIdentifiers":{"addSimulatedYield(uint256)":"51e42def","asset()":"38d52e0f","deposit(uint256)":"b6b55f25","owner()":"8da5cb5b","renounceOwnership()":"715018a6","simulatedYield()":"297c7d81","totalAssets()":"01e1d114","transferOwnership(address)":"f2fde38b","withdraw(uint256)":"2e1a7d4d"},"id":3}